:100000000C94E4020C940D030C9403030C94010370
:100010000C9401030C9401030C9401030C94010350
:100020000C9401030C9401030C9401030C94010340
:100030000C9401030C9401030C9401030C94010330
:100040000C9401030C9401030C9401030C94010320
:100050000C9401030C9401030C9401030C94010310
:100060000C9401030C94010300006006700E300C28
:10007000181818180C300E70066003C003C00180F9
:100080000180018001800180018001800180018068
:100090000180000000003FC03FF03038301C300CC1
:1000A000300C30063006300630063006300630069A
:1000B0003006300C300C301C30383FF03FC00000B0
:1000C0000000701C701C701C783C783C783C6C2CD8
:1000D0006C6C6C6C6C4C66CC66CC66CC638C638C44
:1000E000638C600C600C600C600C00000000000071
:1000F000000000000000000000006FBE79E671C63D
:1001000071C6618661866186618661866186618667
:10011000618661866186000000003000300030009A
:100120003000300031F033F8371C3C0C380C380C00
:10013000300C300C300C300C300C300C300C300CDF
:10014000300C000000000000000000000000000073
:10015000000007800780030000000000000000008E
:10016000000000000000030007800780030000007B
:1001700000000003FF8007FFC00F83E00F01E01EB7
:1001800000F01E00F03C01F83C01F83C03F8780751
:10019000FC78073C780F3C781E3C781C3C783C3C53
:1001A00078383C78703C78F03C78E03C79E03C79F9
:1001B000C07C3F80783F80783F00781E00F01E00B2
:1001C000F00F01E00F83E007FFC003FF8000FE0097
:1001D000000000000000000000007E0000FE0001A2
:1001E000FE0007DE000F9E000E1E00081E00001E0F
:1001F00000001E00001E00001E00001E00001E0069
:10020000001E00001E00001E00001E00001E000058
:100210001E00001E00001E00001E00001E00001E2A
:1002200000001E00001E00001E000FFFFC0FFFFC60
:100230000FFFFC0000000000000FFF801FFFE01F09
:1002400007E01801F00000F00000F00000F00000EE
:10025000F00001F00001E00003E00007C0000780AB
:10026000000F00001E00003C00007C0000F80001B0
:10027000F00003E00003C0000780000F00001E0034
:10028000001E00003C00003C00003C00003FFFF866
:100290003FFFF83FFFF80000000000001FFF801F35
:1002A000FFC01E07E01001E00001F00000F00000B8
:1002B000F00000F00000F00001E00003E0000FC0DB
:1002C00003FF0003FE0003FFC0000FE00001F00089
:1002D00000F00000F80000780000780000780000CE
:1002E000780000780000F00000F03001E03E07E008
:1002F0003FFF803FFF0007F8000000000000000003
:100300000000000F80001F80001F80003F80003F22
:1003100080007F8000FF8000F78001F78001E78088
:1003200003E78007C7800787800F87800F07801F3C
:1003300007803E07803C07807C07807FFFFE7FFFB1
:10034000FE7FFFFE00078000078000078000078017
:100350000007800007800007800007800000000081
:1003600000000000001FFFF01FFFF01E00001E0035
:10037000001E00001E00001E00001E00001E0000E7
:100380001E00001FF8001FFF001FFF80001FC0009D
:1003900003E00001F00000F00000F8000078000029
:1003A000780000780000780000780000F00001F08C
:1003B0002003E03C0FC03FFF803FFF0007F8000034
:1003C000000000000000FFF001FFF003E07007C034
:1003D000100F80000F00001F00001E00001E000014
:1003E0001E00003C00003C1F003C7FC03CFFF03D75
:1003F000E1F03F80F83F00783F003C3E003C3E008B
:100400003C3E003C1E003C1E003C1E003C0F0078A1
:100410000F00780F80F007C3F003FFE001FF8000BA
:100420007E000000000000000000003FFFFC3FFFD6
:10043000FC00003C0000380000780000F00001F0F3
:100440000001E00003C00007C0000F80000F0000A3
:100450001F00003E00003C00007C0000F80000F09F
:100460000001E00001E00003C00003C00007C0007D
:1004700007800007800007800007800007800007D2
:10048000800007800000000000000003FF8007FFDD
:10049000C00F83E00F01F01E00F01E00F01E00F000
:1004A0001E00F01F01E00F81E007C3C007E78003D3
:1004B000FF0000FE0001FE0003FF8007CFC00F8792
:1004C000E01F03F01E01F03E00F83C00783C00788D
:1004D0003C00783C00783E00F81F00F01F83F00FCE
:1004E000FFE007FFC000FE0000000000000003FF67
:1004F000800FFFC00F87E01E01E03C01F03C00F0E0
:100500007800F878007878007878007C78007C783B
:1005100000FC7800FC3C01FC3E03FC1F07BC0FFF05
:100520003C07FE3C01F83C00003C000078000078ED
:100530000000780000F00000F00001E00003E00E91
:100540000FC00FFF800FFF0007F800000000000041
:10055000000000000000000000000000000000009B
:100560000000000000000000000000000078000013
:10057000FC0000FC0000FC0000FC00007800000013
:10058000000000000000000000000000000000006B
:1005900000000000000000000000000000780000E3
:1005A000FC0000FC0000FC0000FC000078000000E3
:1005B00000DB40A4A62EAF2000A1C8D300408DAE22
:1005C000D580A82200FF210011241FBECFEFD8E064
:1005D000DEBFCDBF21E0A6E0B1E001C01D92AC308E
:1005E000B207E1F711E0A0E0B1E0E2EFF5E102C00F
:1005F00005900D92A630B107D9F70E9428070C94F8
:10060000F70A0C9400001F920F920FB60F9211245C
:100610000F900FBE0F901F9018951F920F920FB65C
:100620000F9211240F900FBE0F901F90189582E02B
:100630008093B800ECEBF0E080818B7E808380813A
:10064000846080830895882311F082E001C080E2F5
:100650008093B80008951092BC0094EA9093BC0077
:100660009091BC0097FFFCCF9091B900987F983093
:1006700011F081E008958093BB0084E88093BC0072
:100680008091BC0087FFFCCF8091B900887F8831C2
:1006900011F0803471F780E008958093BB0084E806
:1006A0008093BC008091BC0087FFFCCF9091B90083
:1006B000987F81E0983209F480E0089584EC80937B
:1006C000BC008091BC0087FFFCCF8091BB000895E7
:1006D00084E88093BC008091BC0087FFFCCF8091B0
:1006E000BB000895DF92EF92FF920F931F93CF9379
:1006F000DF93D62E072F7A010E942B03182F81112A
:100700000CC0CD2DD02FEC0EFD1ECE15DF0539F01F
:1007100089910E944D038823C1F311E003C084E94D
:100720008093BC00812FDF91CF911F910F91FF909B
:10073000EF90DF900895AF92BF92CF92DF92FF9239
:100740000F931F93CF93DF936B018A0181600E9407
:100750002B03F82E811118C05601E8012197C5011D
:100760008C199D098C179D0730F40E945E03F501DA
:1007700081935F01F4CFCC0DDD1D0E946803888357
:1007800084E98093BC0002C0FF24F3948F2DDF9195
:10079000CF911F910F91FF90DF90CF90BF90AF90BE
:1007A0000895DF92EF92FF920F931F93CF93DF9301
:1007B000C62FD42E052F79010E942B03182F8823D2
:1007C00011F011E013C08C2F0E944D03CD2DD02FBE
:1007D000EC0EFD1ECE15DF0531F089910E944D0310
:1007E0008823C1F3EECF84E98093BC00812FDF9191
:1007F000CF911F910F91FF90EF90DF900895AF92EE
:10080000BF92CF92DF92FF920F931F93CF93DF930C
:10081000C82FD62F6A0189010E942B03882319F063
:10082000FF24F39421C08D2F0E944D038C2F8160F3
:100830000E942B03F82E8111F3CF5601E801219776
:10084000C5018C199D098C179D0730F40E945E0329
:10085000F50181935F01F4CFCC0DDD1D0E9468038B
:10086000888384E98093BC008F2DDF91CF911F9105
:100870000F91FF90DF90CF90BF90AF90089584E9E3
:100880008093BC000895CF93C82F8AE70E942B0362
:1008900080E00E944D038C2F0E944D03CF910C9459
:1008A0003F04FF920F931F93CF93DF93F82ED92F1E
:1008B000C62F8AE70E942B0380E00E944D030F2D74
:1008C0001D2FD1E0CC23A1F0D03248F00E943F048C
:1008D0008AE70E942B0380E00E944D03D1E0F801DB
:1008E00084910E944D03DF5FC1500F5F1F4FEACF1D
:1008F000DF91CF911F910F91FF900C943F04EF92E5
:10090000FF921F93CF93DF9365E083EC95E00E9405
:1009100051048FE70E944304F090060110910701F3
:100920008AE70E942B0380E40E944D03CF2DD12F34
:100930007E018CEFF81A11E0CE15DF0581F0103240
:1009400048F00E943F048AE70E942B0380E40E9443
:100950004D0311E089910E944D031F5FEDCFDF91A0
:10096000CF911F91FF90EF900C943F04E09106010E
:10097000F091070180E094E0DF019C011D9221507D
:100980003040E1F708958EEA0C944304809106010B
:1009900090910701892B41F480E094E00E94D609F0
:1009A00090930701809306018091060190910701C1
:1009B000892B21F00E94B60480E0089581E008951B
:1009C000589A8FEC97E00197F1F700C00000589813
:1009D0008FE19EE40197F1F700C00000589A64E0AF
:1009E0008FEB95E00E9451048FE30E94430464E082
:1009F0008BEB95E00E94510484E10E94430464E083
:100A000087EB95E00E9451048AED0E94430482E145
:100A10000E94430481E80E9443048FEC0E94430437
:100A200089ED0E94430481EF0E94430466E081EB5C
:100A300095E00C9451046F927F928F929F92AF92A7
:100A4000BF92CF92EF92FF920F931F93CF93DF93BA
:100A50005C01429FC001112433E0959587953A953A
:100A6000E1F7689F4001699F900C112430E080E01D
:100A700066246394712C341709F445C0932F9E0D9E
:100A8000A92FA695A695A695F0E8AF9FD0011124B1
:100A90009770B30101C0660F9A95EAF7562F162F8B
:100AA0001095CFEFDFEF90E0921759F1692F677043
:100AB00041F4F501E80DF91D84918C256FEF861A3C
:100AC000960ABE0167707727F30102C0EE0FFF1F81
:100AD0006A95E2F7F82EFE22692F600F70E0E09130
:100AE0000601F09107016A0F7B1FE60FF71F608177
:100AF000FF2011F0652B01C0612360839F5F219768
:100B0000D3CF3F5FB8CFDF91CF911F910F91FF906F
:100B1000EF90CF90BF90AF909F908F907F906F900D
:100B20000895CF93DF931F92CDB7DEB721E030E079
:100B3000AE014F5F5F4F62E080ED0E94FF0399813D
:100B4000892F8F7094FD865F292F207296FF08C031
:100B50006CE00E94CA09892F222321F0845F02C021
:100B600021118C5E0F90DF91CF910895CF93DF9389
:100B70001F92CDB7DEB78C3010F490E401C090E640
:100B800099836CE00E94CA09292F911101C02CE0C1
:100B9000822F6AE00E94CA098981982B2A3008F0C6
:100BA0009061998321E030E0AE014F5F5F4F62E0DA
:100BB00080ED0E94D1030F90DF91CF910895CF93E4
:100BC000DF931F92CDB7DEB721E030E0AE014F5F7B
:100BD0005F4F61E080ED0E94FF039981892F8F7044
:100BE0009077969596959695292F220F220F920F22
:100BF000890F0F90DF91CF910895CF93DF931F92CC
:100C0000CDB7DEB76AE00E94CA09292F30E1839F81
:100C1000C00111248077822B898321E030E0AE016E
:100C20004F5F5F4F61E080ED0E94D1030F90DF9135
:100C3000CF910895CF93DF931F92CDB7DEB721E018
:100C400030E0AE014F5F5F4F60E080ED0E94FF0338
:100C50009981892F8F709077969596959695292FE3
:100C6000220F220F920F890F0F90DF91CF910895DD
:100C7000CF92DF92EF92FF920E949105C82E0E94C0
:100C8000DF05D12CDC2CCC24D29490EFD92220E4A7
:100C9000829FC0011124C82AD92A0D2C000CEE080D
:100CA000FF080E941A06A7019601282BCA01B90164
:100CB000FF90EF90DF90CF900895CF93DF931F9236
:100CC000CDB7DEB76AE00E94CA09292F30E1839FC1
:100CD000C00111248077822B898321E030E0AE01AE
:100CE0004F5F5F4F60E080ED0E94D1030F90DF9176
:100CF000CF910895CF93DF931F92CDB7DEB721E058
:100D000030E0AE014F5F5F4F64E080ED0E94FF0373
:100D10009981892F8F709073969596959695292F26
:100D2000220F220F920F890F0F90DF91CF9108951C
:100D3000CF93DF931F92CDB7DEB76AE00E94CA0956
:100D4000292F30E1839FC00111248073822B898376
:100D500021E030E0AE014F5F5F4F64E080ED0E9424
:100D6000D1030F90DF91CF910895CF93DF931F921E
:100D7000CDB7DEB7198221E030E0AE014F5F5F4FA3
:100D800065E080ED0E94FF039981892F8F70929515
:100D90009170990F292F220F220F920F890F0F9018
:100DA000DF91CF910895CF93DF931F92CDB7DEB738
:100DB0006AE00E94CA0940E1849F900111242071D9
:100DC000922B9068998321E030E0AE014F5F5F4F36
:100DD00065E080ED0E94D1030F90DF91CF910895DF
:100DE000CF93DF931F92CDB7DEB7198221E030E0B9
:100DF000AE014F5F5F4F66E080ED0E94FF03998177
:100E0000892F8F7092959F702AE0929F800D1124F8
:100E10000F90DF91CF910895CF93DF931F92CDB7BD
:100E2000DEB76AE00E94CA09292F30E1839FC00122
:100E30001124822B898321E030E0AE014F5F5F4FA8
:100E400066E080ED0E94D1030F90DF91CF9108956D
:100E50008FEF84B987B18F6C87B98AB1836F8AB9F4
:100E60008BB18C608BB980E880BF809164008F6704
:100E7000809364000E94C6048111FFCF7894C0E083
:100E8000712C812C912CF12C10E0D12C612CDAE00A
:100E90000E9417030E94E004512CA12CB12C4A9906
:100EA00005C02FE1261518F0639401C0612C4B9901
:100EB00005C08FE18D1518F0D39401C0D12C91E0BD
:100EC000A916B10409F45BC058F082E0A816B10479
:100ED00009F40FC193E0A916B10409F4B7C137C2F0
:100EE0000E94DF05F82E0E949105182F6D2F0E9499
:100EF000CA09492EC12C3FE0E32E04E028E141E27B
:100F0000682F80E791E00E941B050CE128E141E297
:100F1000642D80E791E00E941B0504E328E141E293
:100F20006AE080E791E00E941B058F2D6D2F0E94E3
:100F3000CA09492E0EE428E141E2682F80E791E0DA
:100F40000E941B0506E628E141E2642D80E791E05E
:100F50000E941B0524E1261510F05394F8C10E944D
:100F6000B6040E947A06982E0E94B506882E0E942A
:100F7000F006782E512CAA24A394B12CE8C1C12CE0
:100F8000EE24E39408E120E146E164E088E690E0A5
:100F90000E941B0508E220E146E164E088E690E05B
:100FA0000E941B0508E320E146E165E088E690E049
:100FB0000E941B0508E420E146E163E088E690E03A
:100FC0000E941B0508E520E146E163E088E690E029
:100FD0000E941B0581E0C11180E0C82EC194812FC1
:100FE0006D2F0E94CA099EE1E92E04E028E141E24A
:100FF000682F80E791E00E941B0581E0C13009F075
:1010000080E0C82EC194812F6D2F0E94CA098EE105
:10101000E82E0CE128E141E2692F80E791E00E948F
:101020001B05C12C04E328E141E26AE080E791E07E
:101030000E941B0581E0C23009F080E0C82EC194F7
:101040008F2D6D2F0E94CA090EE1E02E0EE428E1DB
:1010500041E2682F80E791E00E941B0581E0C330E8
:1010600009F080E0C82EC1948F2D6D2F0E94CA090F
:10107000BEE1EB2E06E628E141E2692F80E791E030
:101080000E941B0581E0681213C0CF5FC43081F459
:10109000812F0E94B6058F2D0E94FD050E94B60487
:1010A00091E0D91659F0C0E0A2E0AA2EB12C4FC1B0
:1010B00021E0D2124CC1C11107C003C0F2E0AF2E33
:1010C000B12C165FC0E00CC0C13011F41F5F08C026
:1010D000C23019F48AE0F80E03C0C33009F4F39467
:1010E000183108F010E09BE39F1508F030C1F12C97
:1010F0002EC1C12CEE24E39408E120E146E161E039
:1011000088E690E00E941B0508E220E146E161E0EC
:1011100088E690E00E941B0508E420E146E162E0D9
:1011200088E690E00E941B0508E520E146E162E0C8
:1011300088E690E00E941B0581E0C11180E0C82E86
:10114000C194892D6D2F0E94CA09EEE1EE2E04E0B4
:1011500028E141E2682F80E791E00E941B0581E0D1
:10116000C13009F080E0C82EC194892D6D2F0E94F6
:10117000CA097EE1E72E0CE128E141E2692F80E710
:1011800091E00E941B0581E0C23009F080E0C82E8A
:10119000C194882D6D2F0E94CA096EE1E62E0EE4DF
:1011A00028E141E2682F80E791E00E941B0581E081
:1011B000C33009F080E0C82EC194882D6D2F0E94A5
:1011C000CA095EE1E52E06E628E141E2692F80E7E3
:1011D00091E00E941B0521E0621213C0CF5FC43072
:1011E00081F4892D0E949806882D0E94D3060E94C2
:1011F000B60481E0D81659F0C0E043E0A42EB12C2B
:10120000A6C091E0D912A3C0C11108C003C033E049
:10121000A32EB12C2AE0920EC0E00CC0C13011F414
:10122000939408C0C23019F48AE0880E03C0C3301A
:1012300009F483949FE1991510F4992493942CE078
:10124000281508F084C08824839481C0C12CEE2422
:10125000E39400E220E146E160E088E690E00E944D
:101260001B0500E320E146E160E088E690E00E9493
:101270001B0500E420E146E160E088E690E00E9482
:101280001B0500E520E146E160E088E690E00E9471
:101290001B052EE1E22E00E128E141E262E080E759
:1012A00091E00E941B0508E228E141E260E080E74E
:1012B00091E00E941B0581E0C11180E0C82EC1941D
:1012C000872D6D2F0E94CA099EE1E92E00E428E1D6
:1012D00041E2682F80E791E00E941B0581E0C13068
:1012E00009F080E0C82EC194872D6D2F0E94CA0995
:1012F0008EE1E82E06E528E141E2692F80E791E0E2
:101300000E941B0581E068120FC0CF5FC23061F4FC
:10131000872D0E940C070E94B60491E0D91651F067
:10132000C0E0A12CB12C13C021E0D21210C0C11119
:1013300007C002C0A12CB12C8AE0780EC0E003C027
:10134000C13009F4739493E6971508F4712C0E9448
:101350007F042FEF86E791E0215080409040E1F735
:1013600000C0000022E3251508F099CD0E94C304B7
:101370008DB383608DBB83B7817F846083BF83B768
:10138000816083BF889583B78E7F83BF8DB38C7F49
:101390008DBB7ECD991B79E004C0991F961708F08C
:1013A000961B881F7A95C9F7809508950F931F9310
:1013B000CF93DF938230910510F482E090E0E091CA
:1013C0000A01F0910B0120E030E0A0E0B0E030979E
:1013D00019F1408151810281138148175907C8F0E2
:1013E0008417950769F4109731F012960C931297B1
:1013F00013961C9327C000930A0110930B0122C07F
:101400002115310519F04217530718F49A01BD014F
:10141000EF01DF01F801DBCF21153105F9F0281BC1
:10142000390B2430310580F48A819B816115710567
:1014300021F0FB019383828304C090930B0180937E
:101440000A01FE01329644C0FE01E20FF31F8193B0
:10145000919322503109398328833AC020910801A1
:1014600030910901232B41F42091020130910301B5
:10147000309309012093080120910001309101016E
:101480002115310541F42DB73EB74091040150912B
:101490000501241B350BE0910801F0910901E217C9
:1014A000F307A0F42E1B3F0B2817390778F0AC0187
:1014B0004E5F5F4F2417350748F04E0F5F1F509364
:1014C0000901409308018193919302C0E0E0F0E0AC
:1014D000CF01DF91CF911F910F910895CF93DF93AB
:1014E000009709F481C0FC01329713821282A09107
:1014F0000A01B0910B01109781F420813181820F94
:10150000931F20910801309109012817390751F5DF
:10151000F0930901E093080167C0ED0120E030E09D
:10152000CE17DF0740F44A815B819E0141155105CA
:10153000F1F0EA01F5CFD383C28340815181840F5A
:10154000951FC817D90759F488819981840F951F71
:101550000296918380838A819B8193838283211564
:10156000310529F4F0930B01E0930A013DC0E90134
:10157000FB83EA8349915991C40FD51FEC17FD07EE
:1015800061F480819181840F951F0296E90199830E
:101590008883828193819B838A83E0E0F0E01296C6
:1015A0008D919C911397009719F0FD01DC01F7CF05
:1015B0008D919C9111979D012E5F3F4F820F931F3C
:1015C00020910801309109012817390769F43097F3
:1015D00029F410920B0110920A0102C013821282A8
:1015E000B0930901A0930801DF91CF910895F89479
:0215F000FFCF2B
:0615F20000000C012000C6
:00000001FF
