:100000000C9456020C947F020C9475020C947302AB
:100010000C9473020C9473020C9473020C9473028C
:100020000C9473020C9473020C9473020C9473027C
:100030000C9473020C9473020C9473020C9473026C
:100040000C9473020C9473020C9473020C9473025C
:100050000C9473020C9473020C9473020C9473024C
:100060000C9473020C947302000E1826000E0C26DA
:100070000C261813000E0826082610131013182635
:10008000000E062606260C130C1312261226181331
:10009000021C0C260C26161C161C020E021C160E28
:1000A000000E18090005180900051800DB40A4A679
:1000B0002EAF2000A1C8D300408DAED580A822006D
:1000C000FF2100003F00F03F00FF3FE0871F7880E6
:1000D000071FC0C303F0F8007E1E809F07F0E701F2
:1000E000FE3D80F30FF0FC031EFF80C33FF0F00FD6
:1000F0001CFC8303FFF0C03F1CF08F03FCF380EF78
:100100001CE0F90778FE009E1FC0C707F0F0013E13
:100110007880077EF801FF3F00FF03003F000000EA
:1001200000001F00E00700FC01C07F00FC1E808F64
:1001300007E0E101187800001E00800700E00100E0
:100140007800001E00800700E001007800001E001B
:10015000800700E001007800001E00800700E00139
:10016000007800001E00800700E001007800001EFB
:1001700080FFFFE3FFFFF8FF3F007F00FC7F80FF71
:100180003FE0831F18800F00C00300F000003C0018
:10019000000F00C003007800001F00C003007800BB
:1001A000001F00E003007800000F00E001003C00A9
:1001B000800700F000001E00C00700F000001E00D5
:1001C000800700F000003C00000F00C0FFFFF1FFBF
:1001D0007FFCFF1FC03F00FE3F80FF1FE0C10F08F4
:1001E000C00300F001007800001E00800700E0015D
:1001F000003C00000F00E001003C00FC0700FF0194
:10020000C0FF0100FC01007800003C00001F0080DE
:100210000700E001007800001E00800700F00000E9
:100220003C0C80071FF8C1FF1FF0FF03E01F000018
:100230000000007800001F00E00700F801007F00C8
:10024000E01F00F80700FF01E07B00781E009F0719
:10025000C0E3017878001F1EC08307F8E0011F7813
:10026000C0031EF880071FE0C1FFFFFFFFFFFFFF75
:10027000FF00E001007800001E00800700E00100A0
:100280007800001E00800700E001000000FEFF83F0
:10029000FFFFE0FF3F7800001E00800700E0010044
:1002A0007800001E00800700E00100F80F00FE1F2C
:1002B00080FF1F00E00F00E00700E00300F00000F7
:1002C0007C00001E00800700E001007800001E0096
:1002D000C00700F000003E0CC0070FFCC0FF1FF07D
:1002E000FF03C01F0000FC03C0FF03FCFF801F389A
:1002F000F001083C00800700E001003C00000F0016
:10030000C00300F800001E0080073FE0F13F78FEC8
:100310001FDE838F3FC0E707E0F901F83E00BC0F06
:1003200000EF03C0F300F03C003C0F808F07E0E1DA
:10033000017CF0000FFCF001FE3F00FF07007F0092
:10034000000000FFFFCFFFFFF3FFFF00003C0000B5
:100350000700E001003C00000F00E001007C00808D
:100360000F00E001007C00800F00E001007C0080B5
:100370000F00E001003C00800F00E001007C000065
:100380000F00C003007800001E00800700E001009D
:100390007800001E00800700E00100007F00F07F71
:1003A00000FF3FE0831F78800F0FC0C303F0F00011
:1003B0003C3C000F1FE0810F78E0070FF0E301F8ED
:1003C0003F00FC0700FE00C0FF00F87E001F3FE07A
:1003D000831F7CC00F0FE0E303F07900781E009EBE
:1003E0000780E701E0F9007C7C800F7FF081FF7FD0
:1003F00080FF07807F00801F00F83F80FF1FE0C361
:100400000F3CC08307F0E101783C003E0F00CF03B2
:10041000C0F300F03C007C0F80DF03E0E701FCF953
:10042000807F7CF01EFE9F07FFE3013F7800001EE7
:1004300000C00700F000003C00000F00E001007861
:1004400000000F00E0030E7E80FF0FE0FF00E00FD2
:10045000000000000000000000000000000000009C
:1004600000000000000000000000000000C00100CB
:10047000F800007F00C01F00F00700F800001C001B
:10048000000000000000000000000000000000006C
:10049000000000000000000000C00100F800007F24
:1004A00000C01F00F00700F800001C0011241FBE50
:1004B000CFEFD8E0DEBFCDBF21E0A6E0B1E001C0C4
:1004C0001D92AC30B207E1F711E0A0E0B1E0E2EB41
:1004D000F0E102C005900D92A630B107D9F70E9455
:1004E000B0060C9457080C9400001F920F920FB6A0
:1004F0000F9211240F900FBE0F901F9018951F920E
:100500000F920FB60F9211240F900FBE0F901F90F5
:10051000189582E08093B800ECEBF0E080818B7E50
:1005200080838081846080830895882311F082E035
:1005300001C080E28093B80008951092BC0094EA54
:100540009093BC009091BC0097FFFCCF9091B900B4
:10055000987F983011F081E008958093BB0084E883
:100560008093BC008091BC0087FFFCCF8091B900D4
:10057000887F883111F0803471F780E0089580938E
:10058000BB0084E88093BC008091BC0087FFFCCF57
:100590009091B900987F81E0983209F480E0089545
:1005A00084EC8093BC008091BC0087FFFCCF8091DD
:1005B000BB00089584E88093BC008091BC0087FF55
:1005C000FCCF8091BB000895DF92EF92FF920F93D2
:1005D0001F93CF93DF93D62E072F7A010E949D029F
:1005E000182F81110CC0CD2DD02FEC0EFD1ECE1575
:1005F000DF0539F089910E94BF028823C1F311E021
:1006000003C084E98093BC00812FDF91CF911F91BB
:100610000F91FF90EF90DF900895AF92BF92CF922D
:10062000DF92FF920F931F93CF93DF936B018A01A9
:1006300081600E949D02F82E811118C05601E801C8
:100640002197C5018C199D098C179D0730F40E94D4
:10065000D002F50181935F01F4CFCC0DDD1D0E9426
:10066000DA02888384E98093BC0002C0FF24F394FB
:100670008F2DDF91CF911F910F91FF90DF90CF9041
:10068000BF90AF900895DF92EF92FF920F931F9368
:10069000CF93DF93C62FD42E052F79010E949D02A0
:1006A000182F882311F011E013C08C2F0E94BF0275
:1006B000CD2DD02FEC0EFD1ECE15DF0531F089912A
:1006C0000E94BF028823C1F3EECF84E98093BC006F
:1006D000812FDF91CF911F910F91FF90EF90DF90CD
:1006E0000895AF92BF92CF92DF92FF920F931F9324
:1006F000CF93DF93C82FD62F6A0189010E949D02F4
:10070000882319F0FF24F39421C08D2F0E94BF028B
:100710008C2F81600E949D02F82E8111F3CF56012B
:10072000E8012197C5018C199D098C179D0730F4AC
:100730000E94D002F50181935F01F4CFCC0DDD1D45
:100740000E94DA02888384E98093BC008F2DDF91B8
:10075000CF911F910F91FF90DF90CF90BF90AF90FE
:10076000089584E98093BC000895CF93C82F8AE749
:100770000E949D0280E00E94BF028C2F0E94BF0257
:10078000CF910C94B103FF920F931F93CF93DF93FC
:10079000F82ED92FC62F8AE70E949D0280E00E9482
:1007A000BF020F2D1D2FD1E0CC23A1F0D03248F095
:1007B0000E94B1038AE70E949D0280E00E94BF026E
:1007C000D1E0F80184910E94BF02DF5FC1500F5F4A
:1007D0001F4FEACFDF91CF911F910F91FF900C94A3
:1007E000B103EF92FF921F93CF93DF9365E08EEBFF
:1007F00090E00E94C3038FE70E94B503F0900601CA
:10080000109107018AE70E949D0280E40E94BF02C6
:10081000CF2DD12F7E018CEFF81A11E0CE15DF0518
:1008200081F0103248F00E94B1038AE70E949D02D5
:1008300080E40E94BF0211E089910E94BF021F5F05
:10084000EDCFDF91CF911F91FF90EF900C94B1030A
:10085000E0910601F091070180E094E0DF019C0146
:100860001D9221503040E1F708958EEA0C94B503B3
:100870008091060190910701892B41F480E094E07A
:100880000E9436079093070180930601809106012C
:1008900090910701892B21F00E94280480E008959F
:1008A00081E0089564E08AEB90E00E94C3038FE347
:1008B0000E94B50364E086EB90E00E94C30384E1EC
:1008C0000E94B50364E082EB90E00E94C3038AEDCE
:1008D0000E94B50382E10E94B50381E80E94B5033E
:1008E0008FEC0E94B50389ED0E94B50381EF0E9451
:1008F000B50366E08CEA90E00C94C303CF92DF92DC
:10090000EF92FF920F931F93CF93DF93E42FF0E0CA
:10091000E81BF109F7FF03C0F195E195F109841790
:1009200010F07FEF01C071E030E0C62F062E000C02
:10093000DD0BD901AC1BBD0BB7FF03C0B195A19571
:10094000B109A195C217D30714F05FEF01C051E0C0
:100950000E2E000CFF0BCA2FAA0FDD0B7F01EC0E31
:10096000FD1ECC24C394D12CA82FB0E0962F9695D1
:100970009695969510E8919FA00DB11D11240091B8
:10098000060110910701A00FB11F962F97708601E5
:1009900001C0000F9A95EAF79C91092B0C938413E0
:1009A00007C0A62F062E000CBB0B2A173B0781F0B1
:1009B000D701AA0FBB1FAC17BD071CF0EC0EFD1E24
:1009C000870FEA17FB0784F2EE0EFF1E650FCCCFF0
:1009D000DF91CF911F910F91FF90EF90DF90CF901B
:1009E0000895AF92BF92CF92DF92EF92FF920F9352
:1009F0001F93CF93DF93162F042FE22E65E00E9402
:100A00002A07A82EC92FF92E90EAC92E90E0D92ED8
:100A1000B12CD1E0D227BA1479F1F6018491319644
:100A20006491319644913196249130E00D2E02C0AC
:100A3000359527950A94E2F7200F50E00D2E02C05D
:100A4000559547950A94E2F7410F70E00D2E02C0CC
:100A5000759567950A94E2F7600F90E00D2E02C03D
:100A6000959587950A94E2F7810F0E947E04B394CE
:100A7000F4E0CF0ED11CCFCFCC2339F08C2F880FD0
:100A8000C150C89FC02D112405C0B11037C0C8E2A5
:100A900084E0F82ED0E0C859DF4FD12C81E0E82661
:100AA000FE0184913196649131964491319624915E
:100AB00030E00E2C02C0359527950A94E2F7200FFE
:100AC00050E00E2C02C0559547950A94E2F7410F6D
:100AD00070E00E2C02C0759567950A94E2F7600FDE
:100AE00090E00E2C02C0959587950A94E2F7810F4D
:100AF0000E947E04D3942496FD10D2CFDF91CF9133
:100B00001F910F91FF90EF90DF90CF90BF90AF902B
:100B10000895162FABE58A9F802D112450E006E141
:100B2000A82FB0E0C1E0D0E0852F602F0E942A07F7
:100B3000910F840F252F269526952695FD01E20F0E
:100B4000F11DED53FF4F649170E0252F277002C017
:100B5000759567952A95E2F7782F7695769576952F
:100B6000292F30E0E0910601F0910701877090E8AD
:100B7000799F200D311D1124E20FF31F9E0102C049
:100B8000220F331F8A95E2F7C90160FF03C09081ED
:100B9000892B03C080959081892380835F5FC4CFB8
:100BA000CF93DF931F92CDB7DEB721E030E0AE01E7
:100BB0004F5F5F4F62E080ED0E9471039981892F42
:100BC0008F7094FD865F292F207296FF04C0222328
:100BD00021F0845F02C021118C5E0F90DF91CF91D4
:100BE0000895CF93DF931F92CDB7DEB7282F8D30B6
:100BF00038F02C50822F6AE00E942A07906604C0C9
:100C00006AE00E942A07906499832A3018F089814B
:100C10008061898321E030E0AE014F5F5F4F62E089
:100C200080ED0E9443030F90DF91CF910895CF9301
:100C3000DF931F92CDB7DEB721E030E0AE014F5F0A
:100C40005F4F61E080ED0E9471039981892F8F7061
:100C50009077969596959695292F220F220F920FB1
:100C6000890F0F90DF91CF910895CF93DF931F925B
:100C7000CDB7DEB76AE00E942A07292F30E1839FB3
:100C8000C0011124822B898321E030E0AE014F5F47
:100C90005F4F61E080ED0E9443030F90DF91CF91A1
:100CA0000895CF93DF931F92CDB7DEB721E030E0F8
:100CB000AE014F5F5F4F60E080ED0E94710399814C
:100CC000892F8F709077969596959695292F220F5C
:100CD000220F920F890F0F90DF91CF910895CF923D
:100CE000DF92EF92FF920E94D005C82E0E94170655
:100CF000D12CDC2CCC24D29490EFD92220E4829FFA
:100D0000C0011124C82AD92A0D2C000CEE08FF08B6
:100D10000E945106A7019601282BCA01B901FF9034
:100D2000EF90DF90CF900895CF93DF931F92CDB7D0
:100D3000DEB76AE00E942A07292F30E1839FC001B5
:100D40001124822B898321E030E0AE014F5F5F4F99
:100D500060E080ED0E9443030F90DF91CF910895F2
:100D60000E9438048111FFCF85E10E94F10587E0E0
:100D70000E94350680E00E9494068FEF84B987B107
:100D80008F6C87B98AB1836F8AB980E880BF789405
:100D9000C4E10E9489020E945204DFE1D15009F4AB
:100DA00045C00E9428040E945106182F0E94170671
:100DB000082F0E94D0056C2F0E942A07F92E21E0EF
:100DC00042E062E00E94F10421E042E06EE18F2DFA
:100DD0000E94F104802F6C2F0E942A07092F21E026
:100DE00042E06AE30E94F10421E042E066E5802FE0
:100DF0000E94F104812F6C2F0E942A07192F20E0F6
:100E00004CE268E20E94F10420E04CE26BE3812FA7
:100E10000E94F1040E94F1032FEF81EE94E0215033
:100E200080409040E1F700C00000B8CF0E94350438
:100E30008DB383608DBB83B7817F846083BF83B7AD
:100E4000816083BF889583B78E7F83BF8DB38C7F8E
:100E50008DBB9FCF991B79E004C0991F961708F0AE
:100E6000961B881F7A95C9F7809508950F931F9355
:100E7000CF93DF938230910510F482E090E0E0910F
:100E80000A01F0910B0120E030E0A0E0B0E03097E3
:100E900019F1408151810281138148175907C8F027
:100EA0008417950769F4109731F012960C931297F6
:100EB00013961C9327C000930A0110930B0122C0C4
:100EC0002115310519F04217530718F49A01BD0195
:100ED000EF01DF01F801DBCF21153105F9F0281B07
:100EE000390B2430310580F48A819B8161157105AD
:100EF00021F0FB019383828304C090930B018093C4
:100F00000A01FE01329644C0FE01E20FF31F8193F5
:100F1000919322503109398328833AC020910801E6
:100F200030910901232B41F42091020130910301FA
:100F300030930901209308012091000130910101B3
:100F40002115310541F42DB73EB740910401509170
:100F50000501241B350BE0910801F0910901E2170E
:100F6000F307A0F42E1B3F0B2817390778F0AC01CC
:100F70004E5F5F4F2417350748F04E0F5F1F5093A9
:100F80000901409308018193919302C0E0E0F0E0F1
:100F9000CF01DF91CF911F910F910895CF93DF93F0
:100FA000009709F481C0FC01329713821282A0914C
:100FB0000A01B0910B01109781F420813181820FD9
:100FC000931F20910801309109012817390751F525
:100FD000F0930901E093080167C0ED0120E030E0E3
:100FE000CE17DF0740F44A815B819E014115510510
:100FF000F1F0EA01F5CFD383C28340815181840FA0
:10100000951FC817D90759F488819981840F951FB6
:101010000296918380838A819B81938382832115A9
:10102000310529F4F0930B01E0930A013DC0E90179
:10103000FB83EA8349915991C40FD51FEC17FD0733
:1010400061F480819181840F951F0296E901998353
:101050008883828193819B838A83E0E0F0E012960B
:101060008D919C911397009719F0FD01DC01F7CF4A
:101070008D919C9111979D012E5F3F4F820F931F81
:1010800020910801309109012817390769F4309738
:1010900029F410920B0110920A0102C013821282ED
:1010A000B0930901A0930801DF91CF910895F894BE
:0210B000FFCF70
:0610B20000000C0120000B
:00000001FF
