:100000000C9434000C943E000C943E000C943E0082
:100010000C943E000C943E000C943E000C943E0068
:100020000C943E000C943E000C943E000C943E0058
:100030000C943E000C943E000C943E000C943E0048
:100040000C943E000C943E000C943E000C943E0038
:100050000C943E000C943E000C943E000C943E0028
:100060000C943E000C943E0011241FBECFEFD8E04C
:10007000DEBFCDBF0E9464010C9465010C940000AA
:1000800080E28093B8000895882311F082E001C0D7
:1000900080E28093B80008951092BC0094EA909397
:1000A000BC009091BC0097FFFCCF9091B900987F65
:1000B000983011F081E008958093BB0084E880932C
:1000C000BC008091BC0087FFFCCF8091B900887F85
:1000D000883111F0803471F780E008958093BB007F
:1000E00084E88093BC008091BC0087FFFCCF909196
:1000F000B900987F81E0983209F480E0089584EC9B
:100100008093BC008091BC0087FFFCCF8091BB0036
:10011000089584E88093BC008091BC0087FFFCCFE9
:100120008091BB000895DF92EF92FF920F931F938F
:10013000CF93DF93D62E072F7A010E944C00182F01
:1001400081110CC0CD2DD02FEC0EFD1ECE15DF057C
:1001500039F089910E946E008823C1F311E003C039
:1001600084E98093BC00812FDF91CF911F910F9183
:10017000FF90EF90DF900895AF92BF92CF92DF9201
:10018000FF920F931F93CF93DF936B018A018160DE
:100190000E944C00F82E811118C05601E8012197E9
:1001A000C5018C199D098C179D0730F40E947F00B2
:1001B000F50181935F01F4CFCC0DDD1D0E94890014
:1001C000888384E98093BC0002C0FF24F3948F2DC0
:1001D000DF91CF911F910F91FF90DF90CF90BF9053
:1001E000AF900895DF92EF92FF920F931F93CF93FA
:1001F000DF93C62FD42E052F79010E944C00182FB3
:10020000882311F011E013C08C2F0E946E00CD2DB9
:10021000D02FEC0EFD1ECE15DF0531F089910E9426
:100220006E008823C1F3EECF84E98093BC00812F58
:10023000DF91CF911F910F91FF90EF90DF90089584
:10024000AF92BF92CF92DF92FF920F931F93CF9303
:10025000DF93C82FD62F6A0189010E944C008823A2
:1002600019F0FF24F39421C08D2F0E946E008C2F73
:1002700081600E944C00F82E8111F3CF5601E801F5
:100280002197C5018C199D098C179D0730F40E9498
:100290007F00F50181935F01F4CFCC0DDD1D0E943D
:1002A0008900888384E98093BC008F2DDF91CF91F2
:1002B0001F910F91FF90DF90CF90BF90AF90089566
:0E02C00084E98093BC000895FFCFF894FFCF2F
:00000001FF
