:100000000C946F020C9498020C948E020C948C0247
:100010000C948C020C948C020C948C020C948C0228
:100020000C948C020C948C020C948C020C948C0218
:100030000C948C020C948C020C948C020C948C0208
:100040000C948C020C948C020C948C020C948C02F8
:100050000C948C020C948C020C948C020C948C02E8
:100060000C948C020C948C02000E1826000E0C26A8
:100070000C261813000E0826082610131013182635
:10008000000E062606260C130C1312261226181331
:10009000021C0C260C26161C161C020E021C160E28
:1000A000000E18090005180900051800DB40A4A679
:1000B0002EAF2000A1C8D300408DAED580A822006D
:1000C000FF210003FFC007FFE00FC1F01F00F81E73
:1000D00000783E003C3C003C7C007E7800FE7800CE
:1000E000FE7801FEF803DFF0038FF0078FF00F0FAB
:1000F000F00E0FF01E0FF03C0FF0380FF0780FF0FD
:10010000700FF0E00FF1E01F71C01E7B801E7F803A
:100110001E7F003E3E003C3E003C1E00781F00F863
:100120000F83F007FFE003FFC0007E000000000027
:100130007E0000FE0001FE0007DE001F9E001F1E65
:10014000001C1E00101E00001E00001E00001E00ED
:10015000001E00001E00001E00001E00001E000009
:100160001E00001E00001E00001E00001E00001EDB
:1001700000001E00001E00001E00001E00001E00E9
:10018000001E00001E00001E00001E001FFFFE1FBC
:10019000FFFE1FFFFE0FFFE01FFFF01F81F81C0096
:1001A000F800007C00003C00003C00003C00003CEB
:1001B00000007C0000780000F80001F00001E00081
:1001C00003E00007C0000F80001F00003E00007C1D
:1001D0000000F80001F00003E00007C00007800005
:1001E0000F80001F00001E00003E00003C00003C8D
:1001F00000003C00003FFFFE3FFFFE3FFFFE1FFFF1
:10020000C01FFFE01F03F01801F00000F8000078A5
:100210000000780000780000780000780000F0000E
:1002200001F00001E00007C003FF8003FF0003FFAF
:10023000E00007F00000F800007C00003C00003EF9
:1002400000001E00001E00001E00001E00001E0018
:10025000003C00003C20007C3800F83F03F03FFFEA
:10026000E03FFF8003FC000000000003E00007E027
:100270000007E0000FE0001FE0001FE0003FE0008B
:100280007DE00079E000F1E001F1E003E1E003C18D
:10029000E007C1E00F81E00F01E01F01E03E01E057
:1002A0003C01E07C01E0F801E0FFFFFFFFFFFFFF02
:1002B000FFFF0001E00001E00001E00001E00001BB
:1002C000E00001E00001E00001E00001E00001E0E9
:1002D0000000001FFFFC1FFFFC1E00001E00001E90
:1002E00000001E00001E00001E00001E00001E0078
:1002F000001E00001FF8001FFF001FFFC0001FF0BE
:100300000001F80000F800007C00003C00003E0006
:10031000001E00001E00001E00001E00001E000047
:100320003E00003C00007C0000783000F83E03F006
:100330003FFFC03FFF8003FC00007FFC01FFFC0388
:10034000F03C07C0040F80000F00001E00001E00DC
:10035000003C00003C00003C00007C0000780000F5
:10036000781F80787FE079FFF87BE0FC7FC03E7FDC
:10037000801E7F001E7F000F7E000F7E000F3E005C
:100380000F3E000F3E000F3E000F1F001E1F001EFD
:100390000F803C0FC07C07E1F803FFF001FFC000B5
:1003A0007F000000003FFFFF3FFFFF00001F000035
:1003B0001E00003E00003C0000780000F80001F044
:1003C0000001E00003C00007C0000F80000F000024
:1003D0001F00003E00003C00007C0000780000F0A0
:1003E0000001F00001E00003E00003C00003C000D2
:1003F0000780000780000780000780000780000753
:10040000800007800007800007800000FFC003FF16
:10041000E007C1F00780F00F80F80F00780F007838
:100420000F00780F00780F80F807C0F007E1F003A5
:10043000F3E003FFC001FF8000FF0001FF8003FF26
:10044000C007EFE007C3F00F81F81F00FC1E007C1F
:100450003E003E3C003E3C001E3C001E3C001E3C5C
:10046000001E1E003C1F007C0FC1F807FFF003FFB9
:10047000E000FF0003FFC007FFE00FC3F01F00F81C
:100480001E00783C007C3C003C78003E78003E78C2
:10049000003E78003E78003F78003F78003F3C0007
:1004A0007F3C00FF3E01FF1F83EF0FFFCF07FF0FD1
:1004B00000FC0F00000F00001E00001E00001E00C8
:1004C000001E00003C00003C0000780000F808011D
:1004D000F00E07E00FFFC00FFF8003FC00001124A7
:1004E0001FBECFEFD8E0DEBFCDBF21E0A6E0B1E078
:1004F00001C01D92AC30B207E1F711E0A0E0B1E01D
:10050000E6EEF1E102C005900D92A630B107D9F7F1
:100510000E9445070C94F1080C9400001F920F9262
:100520000FB60F9211240F900FBE0F901F901895C9
:100530001F920F920FB60F9211240F900FBE0F90C3
:100540001F90189582E08093B800ECEBF0E080817A
:100550008B7E80838081846080830895882311F05E
:1005600082E001C080E28093B80008951092BC0040
:1005700094EA9093BC009091BC0097FFFCCF9091BF
:10058000B900987F983011F081E008958093BB0006
:1005900084E88093BC008091BC0087FFFCCF8091F1
:1005A000B900887F883111F0803471F780E00895B8
:1005B0008093BB0084E88093BC008091BC0087FFDF
:1005C000FCCF9091B900987F81E0983209F480E0E7
:1005D000089584EC8093BC008091BC0087FFFCCF21
:1005E0008091BB00089584E88093BC008091BC009A
:1005F00087FFFCCF8091BB000895DF92EF92FF92BE
:100600000F931F93CF93DF93D62E072F7A010E946B
:10061000B602182F81110CC0CD2DD02FEC0EFD1E6F
:10062000CE15DF0539F089910E94D8028823C1F3E5
:1006300011E003C084E98093BC00812FDF91CF914A
:100640001F910F91FF90EF90DF900895AF92BF92AE
:10065000CF92DF92FF920F931F93CF93DF936B01A3
:100660008A0181600E94B602F82E811118C05601DD
:10067000E8012197C5018C199D098C179D0730F45D
:100680000E94E902F50181935F01F4CFCC0DDD1DDD
:100690000E94F302888384E98093BC0002C0FF2497
:1006A000F3948F2DDF91CF911F910F91FF90DF90E9
:1006B000CF90BF90AF900895DF92EF92FF920F938B
:1006C0001F93CF93DF93C62FD42E052F79010E945D
:1006D000B602182F882311F011E013C08C2F0E944E
:1006E000D802CD2DD02FEC0EFD1ECE15DF0531F03A
:1006F00089910E94D8028823C1F3EECF84E98093C8
:10070000BC00812FDF91CF911F910F91FF90EF904F
:10071000DF900895AF92BF92CF92DF92FF920F9336
:100720001F93CF93DF93C82FD62F6A0189010E94B0
:10073000B602882319F0FF24F39421C08D2F0E9464
:10074000D8028C2F81600E94B602F82E8111F3CF5F
:100750005601E8012197C5018C199D098C179D0749
:1007600030F40E94E902F50181935F01F4CFCC0DD2
:10077000DD1D0E94F302888384E98093BC008F2DE5
:10078000DF91CF911F910F91FF90DF90CF90BF909D
:10079000AF90089584E98093BC000895CF93C82F4B
:1007A0008AE70E94B60280E00E94D8028C2F0E9445
:1007B000D802CF910C94CA03FF920F931F93CF934B
:1007C000DF93F82ED92FC62F8AE70E94B60280E069
:1007D0000E94D8020F2D1D2FD1E0CC23A1F0D032E2
:1007E00048F00E94CA038AE70E94B60280E00E9495
:1007F000D802D1E0F80184910E94D802DF5FC15095
:100800000F5F1F4FEACFDF91CF911F910F91FF90A4
:100810000C94CA03EF92FF921F93CF93DF9365E08E
:100820008EEB90E00E94DC038FE70E94CE03F090F5
:100830000601109107018AE70E94B60280E40E9437
:10084000D802CF2DD12F7E018CEFF81A11E0CE15F2
:10085000DF0581F0103248F00E94CA038AE70E9447
:10086000B60280E40E94D80211E089910E94D80269
:100870001F5FEDCFDF91CF911F91FF90EF900C9410
:10088000CA03E0910601F091070180E094E0DF01E6
:100890009C011D9221503040E1F708958EEA0C949E
:1008A000CE038091060190910701892B41F480E0ED
:1008B00094E00E94D00790930701809306018091F5
:1008C000060190910701892B21F00E94410480E0EC
:1008D000089581E0089564E08AEB90E00E94DC03D3
:1008E0008FE30E94CE0364E086EB90E00E94DC037D
:1008F00084E10E94CE0364E082EB90E00E94DC037E
:100900008AED0E94CE0382E10E94CE0381E80E941C
:10091000CE038FEC0E94CE0389ED0E94CE0381EFBF
:100920000E94CE0366E08CEA90E00C94DC03CF9248
:10093000DF92EF92FF920F931F93CF93DF93E42FF9
:10094000F0E0E81BF109F7FF03C0F195E195F1092B
:10095000841710F07FEF01C071E030E0C62F062E43
:10096000000CDD0BD901AC1BBD0BB7FF03C0B1956B
:10097000A195B109A195C217D30714F05FEF01C08B
:1009800051E00E2E000CFF0BCA2FAA0FDD0B7F01CA
:10099000EC0EFD1ECC24C394D12CA82FB0E0962FD2
:1009A00096959695969510E8919FA00DB11D1124EE
:1009B0000091060110910701A00FB11F962F9770AB
:1009C000860101C0000F9A95EAF79C91092B0C93C0
:1009D000841307C0A62F062E000CBB0B2A173B075B
:1009E00081F0D701AA0FBB1FAC17BD071CF0EC0E9E
:1009F000FD1E870FEA17FB0784F2EE0EFF1E650F40
:100A0000CCCFDF91CF911F910F91FF90EF90DF90AE
:100A1000CF900895AF92BF92CF92DF92EF92FF9264
:100A20000F931F93CF93DF93162F042FE22E65E0D1
:100A30000E94C407A82EC92FF92E90EAC92E90E073
:100A4000D92EB12CD1E0D227BA1479F1F6018491D4
:100A500031966491319644913196249130E00D2E77
:100A600002C0359527950A94E2F7200F50E00D2E2D
:100A700002C0559547950A94E2F7410F70E00D2E9C
:100A800002C0759567950A94E2F7600F90E00D2E0D
:100A900002C0959587950A94E2F7810F0E9497040A
:100AA000B394F4E0CF0ED11CCFCFCC2339F08C2FF0
:100AB000880FC150C89FC02D112405C0B11037C088
:100AC000C8E284E0F82ED0E0C859DF4FD12C81E095
:100AD000E826FE01849131966491319644913196D5
:100AE000249130E00E2C02C0359527950A94E2F748
:100AF000200F50E00E2C02C0559547950A94E2F75E
:100B0000410F70E00E2C02C0759567950A94E2F7CC
:100B1000600F90E00E2C02C0959587950A94E2F73D
:100B2000810F0E949704D3942496FD10D2CFDF91B9
:100B3000CF911F910F91FF90EF90DF90CF90BF90DA
:100B4000AF900895AF92BF92CF92DF92EF92FF9253
:100B50000F931F93CF93DF93C9E68C9F802D1124B1
:100B600050E0E0E0EE24E394F12CC82FD0E0942F85
:100B7000950F092F06950695069580E8089F800138
:100B800011249770970101C0220F9A95EAF7822FDE
:100B90002095CC24CA94DC2C90E0392F377051F486
:100BA000392F369536953695FE01E30FF11DED533D
:100BB000FF4FE491D601A770BB27570102C0AA0CD2
:100BC000BB1CAA95E2F73E2F3A21A62EA90EB12C06
:100BD000A0910601B0910701A00EB11EAA0DBB1D88
:100BE000332319F03C91382B02C03C9132233C93C3
:100BF0009F5F31E0C31AD108983179F65F5F5332B5
:100C000009F0B5CFDF91CF911F910F91FF90EF9039
:100C1000DF90CF90BF90AF900895CF93DF931F9256
:100C2000CDB7DEB721E030E0AE014F5F5F4F62E04D
:100C300080ED0E948A039981892F8F7094FD865FD1
:100C4000292F207296FF04C0222321F0845F02C066
:100C500021118C5E0F90DF91CF910895CF93DF9398
:100C60001F92CDB7DEB7282F8D3038F02C50822F51
:100C70006AE00E94C407906604C06AE00E94C4074C
:100C8000906499832A3018F089818061898321E0FA
:100C900030E0AE014F5F5F4F62E080ED0E945C0389
:100CA0000F90DF91CF910895CF93DF931F92CDB72F
:100CB000DEB721E030E0AE014F5F5F4F61E080EDD5
:100CC0000E948A039981892F8F70907796959695C7
:100CD0009695292F220F220F920F890F0F90DF91E7
:100CE000CF910895CF93DF931F92CDB7DEB76AE01F
:100CF0000E94C407292F30E1839FC001112480770F
:100D0000822B898321E030E0AE014F5F5F4F61E0CD
:100D100080ED0E945C030F90DF91CF910895CF93F7
:100D2000DF931F92CDB7DEB721E030E0AE014F5F19
:100D30005F4F60E080ED0E948A039981892F8F7058
:100D40009077969596959695292F220F220F920FC0
:100D5000890F0F90DF91CF910895CF92DF92EF929C
:100D6000FF920E940D06C82E0E945406D12CDC2C46
:100D7000CC24D29490EFD92220E4829FC001112488
:100D8000C82AD92A0D2C000CEE08FF080E948F06F5
:100D9000A7019601282BCA01B901FF90EF90DF90BF
:100DA000CF900895CF93DF931F92CDB7DEB76AE05F
:100DB0000E94C407292F30E1839FC001112480774E
:100DC000822B898321E030E0AE014F5F5F4F60E00E
:100DD00080ED0E945C030F90DF91CF910895CF9337
:100DE000DF931F92CDB7DEB76AE00E94C407292FB8
:100DF00030E1839FC00111248073822B898321E01D
:100E000030E0AE014F5F5F4F64E080ED0E945C0315
:100E10000F90DF91CF910895CF93DF931F92CDB7BD
:100E2000DEB76AE00E94C407292F30E1839FC0012A
:100E300011248071822B898321E030E0AE014F5F65
:100E40005F4F65E080ED0E945C030F90DF91CF91D2
:100E50000895CF93DF931F92CDB7DEB76AE00E946B
:100E6000C407292F30E1839FC0011124822B89837D
:100E700021E030E0AE014F5F5F4F66E080ED0E9401
:100E80005C030F90DF91CF9108950E94510481116E
:100E9000FFCF85E10E942E0687E00E94720680E067
:100EA0000E94D2068FEF84B987B18F6C87B98AB15F
:100EB000836F8AB980E880BF809164008F678093D8
:100EC00064007894C4E10E94A2020E946B04DFE1F6
:100ED000D15009F445C00E9441040E948F06182F8A
:100EE0000E945406082F0E940D066C2F0E94C40712
:100EF000F92E21E042E062E00E940A0521E042E092
:100F00006EE18F2D0E940A05802F6C2F0E94C4076E
:100F1000092F21E042E06AE30E940A0521E042E055
:100F200066E5802F0E940A05812F6C2F0E94C4075E
:100F3000192F20E04CE268E20E940A0520E04CE212
:100F40006BE3812F0E940A050E940A042FEF81EEB5
:100F500094E0215080409040E1F700C00000B8CFFD
:100F60000E944E048DB383608DBB83B7817F846004
:100F700083BF83B7816083BF889583B78E7F83BF2C
:100F80008DB38C7F8DBB9FCF991B79E004C0991FD7
:100F9000961708F0961B881F7A95C9F780950895D3
:100FA0000F931F93CF93DF938230910510F482E06B
:100FB00090E0E0910A01F0910B0120E030E0A0E028
:100FC000B0E0309719F140815181028113814817B7
:100FD0005907C8F08417950769F4109731F01296F5
:100FE0000C93129713961C9327C000930A01109339
:100FF0000B0122C02115310519F04217530718F4CF
:101000009A01BD01EF01DF01F801DBCF21153105A8
:10101000F9F0281B390B2430310580F48A819B813B
:101020006115710521F0FB019383828304C09093C5
:101030000B0180930A01FE01329644C0FE01E20FCB
:10104000F31F8193919322503109398328833AC049
:101050002091080130910901232B41F420910201D4
:101060003091030130930901209308012091000180
:10107000309101012115310541F42DB73EB7409162
:10108000040150910501241B350BE0910801F091FA
:101090000901E217F307A0F42E1B3F0B28173907AD
:1010A00078F0AC014E5F5F4F2417350748F04E0FC4
:1010B0005F1F50930901409308018193919302C0EF
:1010C000E0E0F0E0CF01DF91CF911F910F91089503
:1010D000CF93DF93009709F481C0FC01329713820C
:1010E0001282A0910A01B0910B01109781F4208126
:1010F0003181820F931F2091080130910901281737
:10110000390751F5F0930901E093080167C0ED013B
:1011100020E030E0CE17DF0740F44A815B819E017A
:1011200041155105F1F0EA01F5CFD383C283408127
:101130005181840F951FC817D90759F48881998167
:10114000840F951F0296918380838A819B8193836C
:1011500082832115310529F4F0930B01E0930A01F4
:101160003DC0E901FB83EA8349915991C40FD51F22
:10117000EC17FD0761F480819181840F951F029621
:10118000E90199838883828193819B838A83E0E04C
:10119000F0E012968D919C911397009719F0FD0144
:1011A000DC01F7CF8D919C9111979D012E5F3F4FF0
:1011B000820F931F209108013091090128173907E8
:1011C00069F4309729F410920B0110920A0102C0C1
:1011D00013821282B0930901A0930801DF91CF918D
:0611E0000895F894FFCF12
:0611E60000000C012000D6
:00000001FF
