:100000000C9464000C9481000C9481000C94810089
:100010000C9481000C9481000C9481000C9481005C
:100020000C9481000C9481000C9481000C9481004C
:100030000C9481000C9481000C9481000C9481003C
:100040000C9481000C9481000C9481000C9481002C
:100050000C9481000C9481000C9481000C9481001C
:100060000C9481000C9481000C948100000E1826E1
:10007000000E0C260C261813000E08260826101356
:1000800010131826000E062606260C130C13122633
:1000900012261813021C0C260C26161C161C020E07
:1000A000021C160E000E180900051809000518009C
:1000B000DB40A4A62EAF2000A1C8D300408DAED552
:1000C00080A82200FF21000011241FBECFEFD4E042
:1000D000DEBFCDBF21E0A6E0B1E001C01D92AC3093
:1000E000B207E1F711E0A0E0B1E0ECE6F9E002C010
:1000F00005900D92A630B107D9F70E9475030C94B4
:10010000B4040C94000082E08093B800ECEBF0E0C3
:1001100080818B7E808380818460808308958823A2
:1001200011F082E001C080E28093B800089510923F
:10013000BC0094EA9093BC009091BC0097FFFCCF68
:100140009091B900987F983011F081E008958093E4
:10015000BB0084E88093BC008091BC0087FFFCCF8B
:100160008091B900887F883111F0803471F780E088
:1001700008958093BB0084E88093BC008091BC000C
:1001800087FFFCCF9091B900987F81E0983209F405
:1001900080E0089584EC8093BC008091BC0087FFD0
:1001A000FCCF8091BB00089584E88093BC008091CF
:1001B000BC0087FFFCCF8091BB000895DF92EF92D7
:1001C000FF920F931F93CF93DF93D62E072F7A01C1
:1001D0000E949700182F81110CC0CD2DD02FEC0E4E
:1001E000FD1ECE15DF0539F089910E94B9008823E4
:1001F000C1F311E003C084E98093BC00812FDF913B
:10020000CF911F910F91FF90EF90DF900895AF92E3
:10021000BF92CF92DF92FF920F931F93CF93DF9302
:100220006B018A0181600E949700F82E811118C02D
:100230005601E8012197C5018C199D098C179D076E
:1002400030F40E94CA00F50181935F01F4CFCC0D18
:10025000DD1D0E94D400888384E98093BC0002C025
:10026000FF24F3948F2DDF91CF911F910F91FF9079
:10027000DF90CF90BF90AF900895DF92EF92FF9202
:100280000F931F93CF93DF93C62FD42E052F7901A1
:100290000E949700182F882311F011E013C08C2FB3
:1002A0000E94B900CD2DD02FEC0EFD1ECE15DF051E
:1002B00031F089910E94B9008823C1F3EECF84E91F
:1002C0008093BC00812FDF91CF911F910F91FF9000
:1002D000EF90DF900895AF92BF92CF92DF92FF929E
:1002E0000F931F93CF93DF93C82FD62F6A018901F5
:1002F0000E949700882319F0FF24F39421C08D2FCA
:100300000E94B9008C2F81600E949700F82E811105
:10031000F3CF5601E8012197C5018C199D098C176F
:100320009D0730F40E94CA00F50181935F01F4CF6C
:10033000CC0DDD1D0E94D400888384E98093BC002D
:100340008F2DDF91CF911F910F91FF90DF90CF9074
:10035000BF90AF90089584E98093BC000895CF9337
:10036000C82F8AE70E94970080E00E94B9008C2F76
:100370000E94B900CF910C94AB01FF920F931F9391
:10038000CF93DF93F82ED92FC62F8AE70E949700CC
:1003900080E00E94B9000F2D1D2FD1E0CC23A1F0E9
:1003A000D03248F00E94AB018AE70E94970080E0BB
:1003B0000E94B900D1E0F80184910E94B900DF5F8A
:1003C000C1500F5F1F4FEACFDF91CF911F910F9167
:1003D000FF900C94AB010F931F93CF9365E082ECD9
:1003E00090E00E94BD018FE70E94AF018AE70E9462
:1003F000970080E40E94B90001E014E0C1E00150E0
:10040000110981F0C03248F00E94AB018AE70E94D6
:10041000970080E40E94B900C1E089E60E94B9001B
:10042000CF5FEDCFCF911F910F910C94AB01E09175
:100430000601F091070180E091E0DF019C011D922F
:1004400021503040E1F70895809106019091070115
:10045000892B41F480E091E00E949303909307017F
:10046000809306018091060190910701892B81F10B
:100470000E94170264E08EEB90E00E94BD018FE3C2
:100480000E94AF0164E08AEB90E00E94BD0184E12C
:100490000E94AF0164E086EB90E00E94BD018AED0E
:1004A0000E94AF0182E10E94AF0181E80E94AF018A
:1004B0008FEC0E94AF0189ED0E94AF0181EF0E9495
:1004C000AF0166E080EB90E00E94BD0180E00895FE
:1004D00081E00895CF92DF92EF92FF920F931F93E6
:1004E000CF93DF93E42FF0E0E81BF109F7FF03C09F
:1004F000F195E195F109841710F07FEF01C071E0EB
:1005000030E0C62F062E000CDD0BD901AC1BBD0B55
:10051000B7FF03C0B195A195B109A195C217D30743
:1005200014F05FEF01C051E00E2E000CFF0BCA2F3C
:10053000AA0FDD0B7F01EC0EFD1ECC24C394D12C41
:10054000A82FB0E0962F96959695969510E8919FD6
:10055000A00DB11D11240091060110910701A00FFB
:10056000B11F962F9770860101C0000F9A95EAF788
:100570009C91092B0C93841307C0A62F062E000C08
:10058000BB0B2A173B0781F0D701AA0FBB1FAC1783
:10059000BD071CF0EC0EFD1E870FEA17FB0784F267
:1005A000EE0EFF1E650FCCCFDF91CF911F910F9103
:1005B000FF90EF90DF90CF900895AF92BF92CF92CF
:1005C000DF92EF92FF920F931F93CF93DF93162F3B
:1005D000042FE22E65E00E948703A82EC92FF92E72
:1005E00094EAC92E90E0D92EB12CD1E0D227BA14CA
:1005F00079F1F60184913196649131964491319666
:10060000249130E00D2E02C0359527950A94E2F72B
:10061000200F50E00D2E02C0559547950A94E2F741
:10062000410F70E00D2E02C0759567950A94E2F7B0
:10063000600F90E00D2E02C0959587950A94E2F721
:10064000810F0E946A02B394F4E0CF0ED11CCFCF89
:10065000CC2339F08C2F880FC150C89FC02D112496
:1006600005C0B11037C0C8E284E0F82ED0E0C4590C
:10067000DF4FD12C81E0E826FE0184913196649110
:10068000319644913196249130E00E2C02C035957C
:1006900027950A94E2F7200F50E00E2C02C05595E2
:1006A00047950A94E2F7410F70E00E2C02C0759551
:1006B00067950A94E2F7600F90E00E2C02C09595C2
:1006C00087950A94E2F7810F0E946A02D3942496D8
:1006D000FD10D2CFDF91CF911F910F91FF90EF903E
:1006E000DF90CF90BF90AF9008950E9483000E944A
:1006F00024028111FFCF2FEF81EE94E02150804042
:100700009040E1F700C000000E94EB01F4CF991B7C
:1007100079E004C0991F961708F0961B881F7A95F8
:10072000C9F7809508950F931F93CF93DF9382307D
:10073000910510F482E090E0E0910A01F0910B0144
:1007400020E030E0A0E0B0E0309719F14081518125
:100750000281138148175907C8F08417950769F477
:10076000109731F012960C93129713961C9327C092
:1007700000930A0110930B0122C02115310519F0D5
:100780004217530718F49A01BD01EF01DF01F80188
:10079000DBCF21153105F9F0281B390B2430310549
:1007A00080F48A819B816115710521F0FB0193839F
:1007B000828304C090930B0180930A01FE0132965C
:1007C00044C0FE01E20FF31F81939193225031093F
:1007D000398328833AC02091080130910901232BE5
:1007E00041F42091020130910301309309012093DB
:1007F000080120910001309101012115310541F4DA
:100800002DB73EB74091040150910501241B350BD3
:10081000E0910801F0910901E217F307A0F42E1B03
:100820003F0B2817390778F0AC014E5F5F4F241754
:10083000350748F04E0F5F1F5093090140930801A0
:100840008193919302C0E0E0F0E0CF01DF91CF917E
:100850001F910F910895CF93DF93009709F481C002
:10086000FC01329713821282A0910A01B0910B0110
:10087000109781F420813181820F931F209108010C
:10088000309109012817390751F5F0930901E093D8
:10089000080167C0ED0120E030E0CE17DF0740F42B
:1008A0004A815B819E0141155105F1F0EA01F5CFC6
:1008B000D383C28340815181840F951FC817D90704
:1008C00059F488819981840F951F029691838083C2
:1008D0008A819B81938382832115310529F4F093CA
:1008E0000B01E0930A013DC0E901FB83EA834991D2
:1008F0005991C40FD51FEC17FD0761F480819181D8
:10090000840F951F0296E9019983888382819381E0
:100910009B838A83E0E0F0E012968D919C9113977F
:10092000009719F0FD01DC01F7CF8D919C91119793
:100930009D012E5F3F4F820F931F20910801309140
:1009400009012817390769F4309729F410920B012F
:1009500010920A0102C013821282B0930901A0937F
:0C0960000801DF91CF910895F894FFCFBB
:06096C0000000C01200058
:00000001FF
